:100000000C9434000C9451000C9451000C94510049
:100010000C9451000C9451000C9451000C9451001C
:100020000C9451000C9451000C9451000C9451000C
:100030000C9451000C9403050C9451000C94510045
:100040000C9451000C9451000C9451000C945100EC
:100050000C9451000C9451000C9451000C945100DC
:100060000C9451000C94510011241FBECFEFD8E026
:10007000DEBFCDBF11E0A0E0B1E0E2EFF2E102C0EF
:1000800005900D92A63EB107D9F721E0A6EEB1E0AA
:1000900001C01D92AA3EB207E1F70E9482060C94AD
:1000A00077090C940000DB01FC0158E0149744E050
:1000B00018960E9001924A95E1F75A95C1F7089566
:1000C0008F929F92AF92BF92CF92DF920F931F9326
:1000D000EDB7FEB7B8970FB6F894EDBF0FBEFEBFF1
:1000E0009F938F9331968F0149015A016B01C8018B
:1000F000AAD2BB2011F4AA2059F0C801B601A1D0A0
:1001000030E4C30ED11C32E0931AA108B108F1CF3C
:10011000C801B601A40115D08F919F91B801C3DF2A
:10012000EDB7FEB7B8960FB6F894EDBF0FBEFEBFA1
:100130001F910F91DF90CF90BF90AF909F908F90C5
:100140000895523090F09F938F937F936F935F93B6
:100150004F9377D04F915F916F917F918F919F9146
:10016000525030E4630F711DECCFEDB7FEB70FB600
:10017000E054F040F894EDBF0FBEFEBF3196242F3F
:1001800026952695269550FB25F9DB01222329F09B
:10019000122E0D9001921A94E1F730E8032E37E009
:1001A000342329F006943A95E9F73C91032A019209
:1001B0002395293308F421C030E4321B19F0119241
:1001C0003A95E9F7FF973197BF01FF93EF939F931C
:1001D0008F935F934F9335D04F915F918F919F9104
:1001E000EF91FF91DC0191963C9132503D9326E0D6
:1001F0003C9130403D932A95D9F738E3321B21F0EA
:10020000112411923A95E9F7DC01909638960D90F9
:10021000040E02920D90051E029236E00D90011C14
:1002200002923A95D9F7F897BF010BD0EDB7FEB718
:100230000FB6FF963196F894EDBF0FBEFEBF1124A6
:1002400008954F925F926F927F928F929F92AF929A
:10025000BF92CF92DF92EF92FF920F931F93CF93B3
:10026000DF934DB75EB79A01FB0140525140DA016E
:100270000FB6F8944DBF0FBE5EBF2F933F938F9381
:100280009F93119640E171916191319121912D934C
:100290003D936D937D934A95B1F740E3142EFD0194
:1002A000FF9731970191119121913191C190D19096
:1002B000E190F1906D2D7E2D8F2D9C2D41E0E9D1A7
:1002C0004B015C01B701C60142E0F9D186269726B1
:1002D000A826B92673E0F694E794D794C7947A9544
:1002E000D1F78C249D24AE24BF24080D191D2A1D8E
:1002F0003B1D648D758D868D978D060F171F281FEA
:10030000391FC0A8D1A8E2A8F3A8B701C60141E0EF
:10031000D6D15C014B0142E0D2D186269726A82691
:10032000B92672E0F694E794D7947A95D9F78D249C
:100330009E24AF24080D191D2A1D3B1D0D931D93EE
:100340002D933D931A9409F0AACFFF91EF91EF936B
:10035000FF9390E211901D929A95E1F79097ED012D
:10036000E6E4F5E0BA9590E4192E4C885D886E8835
:100370007F88688979898A899B89C88CD98CEA8C1D
:10038000FB8C4622572268227922609570958095D1
:100390009095C622D722E822F9224C245D246E24AF
:1003A0007F24F888C988DA88EB88B601C70142E063
:1003B00070D14B015C01B601C70143E080D18626B4
:1003C0009726A826B926B701C60141E078D186262E
:1003D0009726A826B926480C591C6A1C7B1C8C8CB5
:1003E0009D8CAE8CBF8C480C591C6A1C7B1C8D905C
:1003F0009D90AD90BD90480C591C6A1C7B1C85904B
:100400009590A590B590480C591C6A1C7B1C68817E
:1004100079818A819B818C809D80AE80BF8086227D
:100420009722A822B922C884D984EA84FB846C214B
:100430007D218E219F2186269726A826B9266C81AC
:100440007D818E819F816C217D218E219F21862639
:100450009726A826B926C880D980EA80FB80B601F5
:10046000C70142E02CD18B019C01B701C60143E0DA
:1004700010D106271727282739276F2D7C2D8D2D82
:100480009E2D42E006D10627172728273927080D79
:10049000191D2A1D3B1D5CE16C969A919C835A950F
:1004A000E1F7C888D988EA88FB88C40CD51CE61C0B
:1004B000F71CC88AD98AEA8AFB8A040D151D261DF5
:1004C000371D088319832A833B831A9409F04DCF83
:1004D000FF91EF9158E00081118122813381699170
:1004E000799189919991060F171F281F391F019340
:1004F0001193219331935A9571F7319652E066E04A
:100500004081450F4193552728F44081451F419371
:100510006A95D1F75F914F910FB6F8944DBF0FBE1A
:100520005EBF1124DF91CF911F910F91FF90EF904B
:10053000DF90CF90BF90AF909F908F907F906F9003
:100540005F904F900895982F8A4291443771CFFB66
:10055000C0B5A5DBB5E95BC25639F111F159A482EA
:100560003F92D55E1CAB98AA07D8015B8312BE856B
:100570003124C37D0C55745DBE72FEB1DE80A706CA
:10058000DC9B74F19BC1C1699BE48647BEEFC69DAD
:10059000C10FCCA10C246F2CE92DAA84744ADCA9CC
:1005A000B05CDA88F97652513E986DC631A8C827FA
:1005B00003B0C77F59BFF30BE0C64791A7D551637E
:1005C000CA0667292914850AB72738211B2EFC6D16
:1005D0002C4D130D385354730A65BB0A6A762EC925
:1005E000C281852C7292A1E8BFA24B661AA8708BBB
:1005F0004BC2A3516CC719E892D1240699D6853510
:100600000EF470A06A1016C1A419086C371E4C773E
:100610004827B5BCB034B30C1C394AAAD84E4FCACF
:100620009C5BF36F2E68EE828F746F63A5781478ED
:10063000C8840802C78CFAFFBE90EB6C50A4F7A3E5
:10064000F9BEF27871C6DC01E8E5F6E068E2759182
:100650007D936A95E1F7089567E6096A85AE67BB01
:1006600072F36E3C3AF54FA57F520E518C68059B94
:10067000ABD9831F19CDE05B000000000000000033
:10068000483038F0592F982F872F762F652F4850F4
:10069000F7CF55278894442339F0661F771F881FAA
:1006A000991F551F4A95C9F7652B0895483038F0B2
:1006B000562F672F782F892F952F4850F7CF552722
:1006C0008894442339F09795879577956795579542
:1006D0004A95C9F7952B0895AB01692F782F852F7F
:1006E000942F0895AF92BF92CF92DF92EF92FF9234
:1006F0000F931F93CF93DF93CDB7DEB7C054D109CB
:100700000FB6F894DEBF0FBECDBF7C018E010F5F28
:100710001F4F80E4F80111928A95E9F74130F2E029
:100720005F0708F442C09A0150E040E0C8010E940F
:10073000600058019E012F5B3F4F680196E3F60170
:1007400081916F01319789278083C216D306B9F74B
:10075000C7010E942303B801C7010E9421019AE644
:10076000F50181915F01319789278083AC14BD0425
:10077000B9F7F8E2EF0EF11CC7010E942303B8019C
:10078000C7010E942101C05CDF4F0FB6F894DEBFA5
:100790000FBECDBFDF91CF911F910F91FF90EF90D2
:1007A000DF90CF90BF90AF900895495F5F4F83E097
:1007B000569547958A95E1F7C8010E943909B9CF46
:1007C0000C9421010C94A1000F931F93CF93DF93FE
:1007D0008C01EB010E945300A89640E051E0B80163
:1007E000CE010E94A100BE01C801DF91CF911F91EF
:1007F0000F910C9453002F923F924F925F926F9201
:100800007F928F929F92AF92BF92CF92DF92EF92A0
:10081000FF920F931F93CF93DF93CDB7DEB7CE56E2
:10082000D1090FB6F894DEBF0FBECDBFAD969FAF16
:100830008EAFAD97AF963FAF2EAFAF974701580140
:100840009E012F5F3F4F690180E4F90111928A9563
:10085000E9F74130F2E05F0708F49CC09A0150E0EC
:1008600040E0C6010E946000AB96DFAECEAEAB9713
:100870008E010F5B1F4F160196E3F10181911F015D
:1008800031978927808320163106B9F7C1010E946C
:100890002303B601C1010E94210124013501AF9655
:1008A000EEACFFACAF97411432E053066104710423
:1008B00008F07BC02401350189E076946794579451
:1008C00047948A95D1F7A0E0BEEFA30192010E9460
:1008D000CF07AB01BC01480D591D6A1D7B1D96E079
:1008E000440C551C9A95E1F7AF968EAD9FADAF972E
:1008F000480E591EB201C8010E94A1009AE6AB96AB
:10090000EEADFFADAB978191AB96FFAFEEAFAB977E
:10091000319789278083AB962EAD3FADAB972215DB
:10092000330569F7B801AD968EAD9FADAD970E94C6
:100930005300C8010E942303B601C8010E9421018F
:1009400040E051E0AD966EAD7FADAD97C8010E941D
:10095000A100B801AD968EAD9FADAD970E9453003A
:10096000C259DF4F0FB6F894DEBF0FBECDBFDF9187
:10097000CF911F910F91FF90EF90DF90CF90BF909C
:10098000AF909F908F907F906F905F904F903F902F
:100990002F900895495F5F4F23E0569547952A951C
:1009A000E1F7C6010E9439095FCFB701C8010E9473
:1009B0002101F0E4EF0EF11C22E0521A61087108E7
:1009C00072CF10928000E1E8F0E010821092850072
:1009D000109284008081816080830C94B43D1092D9
:1009E0008000E1E8F0E0108210928500109284000F
:1009F000808182608083EFE6F0E080818160808387
:100A000078940C94B43D1F920F920FB60F9211245C
:100A10008F939F93AF93BF938091E6019091E701ED
:100A2000A091E801B091E9010196A11DB11D80934B
:100A3000E6019093E701A093E801B093E901BF912B
:100A4000AF919F918F910F900FBE0F901F900C94BC
:100A5000D03D80918400909185000C94B43D8F929C
:100A60009F92AF92BF92EF92FF920F931F93CF93FB
:100A7000DF938A01EA012AE0822E912CA12CB12C6D
:100A8000611571058105910529F480E38883198238
:100A900017C0E7017E012FEFE21AF20AA5019401C7
:100AA0000E94AA07605D6883B901CA0161157105DA
:100AB0008105910571F7F70110820C171D0760F091
:100AC000DF91CF911F910F91FF90EF90BF90AF906A
:100AD0009F908F900C94B43DF80180819881919300
:100AE0008F0188832197E9CFCF93DF93CDB7DEB70E
:100AF0002B970FB6F894DEBF0FBECDBFAE014F5F90
:100B00005F4F0E942F05CE0101960E9475068AE074
:100B10000E9465062B960FB6F894DEBF0FBECDBFC0
:100B2000DF91CF910C94B43D1F93CF93DF93CDB75A
:100B3000DEB761970FB6F894DEBF0FBECDBF182F9A
:100B400081E1EEE2F1E0DE01119601900D928A95CD
:100B5000E1F7E12FE295EF7081E090E08C0F9D1FAF
:100B60008E0F911DFC0180810E946506E12FEF70C0
:100B700081E090E08C0F9D1F8E0F911DFC01808104
:100B800061960FB6F894DEBF0FBECDBFDF91CF9157
:100B90001F910C946506EF92FF920F931F93CF93D2
:100BA000DF937B018C01D0E0C0E0CE15DF0551F46E
:100BB0008FE391E0DF91CF911F910F91FF90EF9024
:100BC0000C947506209749F0CE018F709927892BD8
:100BD00021F48FE391E00E947506F80181918F0165
:100BE0000E9494058EEA91E00E9475062196DDCF61
:100BF000CF93DF9300D000D01F92CDB7DEB74AE08D
:100C0000BE016F5F7F4F082E000C990B0E944209B6
:100C1000CE0101960E9475068AE00E9465060F903B
:100C20000F900F900F900F90DF91CF910C94B43DE7
:100C3000CF92DF92EF92FF920F93013031F00830A4
:100C400019F160E070E0CB0118C0C12CD12CE12C6F
:100C5000FEE3FF2EFB01DC01C90177276627EA1BB3
:100C6000FB0B6E0F7F1F811D911D0E943E08A70187
:100C700096010E94A4080E940F080F91FF90EF9028
:100C8000DF90CF900C94B43DC12CD12CE0E8EE2E37
:100C9000EFE3FE2EDFCF1092C50083E38093C40004
:100CA000E0ECF0E080818D7F808386E08093C2005D
:100CB00088E18093C1000C94B43D8091C00087FF0F
:100CC000FCCF8091C6000C94B43DCF93C82F8A30DE
:100CD00019F48DE00E9465068091C00085FFFCCF6D
:100CE000C093C600CF910C94B43DCF93DF93EC0139
:100CF0008991811104C0DF91CF910C94B43D0E9481
:100D00006506F6CFAF92BF92CF92DF92EF92FF923D
:100D10000F931F93CF93DF93CDB7DEB7CA57D14060
:100D20000FB6F894DEBF0FBECDBF8E01075C1E4F1D
:100D300020E2F801322F11923A95E9F7CE0187525D
:100D40009F4F30E4FC0111923A95E9F77E01F7EEEE
:100D5000EF1AFEEFFF0AF70111922A95E9F70E94B8
:100D60006B3D0E944B0682E491E00E94750660E2B2
:100D700070E080E090E00E9474058AE691E00E94B5
:100D8000750686E0ECE0F1E0DE01AB58BE4F019065
:100D90000D928A95E1F786E0E2E1F1E0DE01A159EA
:100DA000BE4F01900D928A95E1F786E0E8E1F1E00F
:100DB000DE01A759BE4F01900D928A95E1F780E1BF
:100DC000EEE1F1E0DE01A75ABE4F01900D928A9547
:100DD000E1F786E0FE01E759FE4FDE01A359BF4F60
:100DE00001900D928A95E1F786E0FE01EB58FE4FE7
:100DF000ADE6B0E0AC0FBD1F169601900D928A953E
:100E0000E1F786E0FE01E159FE4FDE011796019001
:100E10000D928A95E1F781E1EC968FAFEC97ED9614
:100E20008FAFED97EE968FAFEE97EF968FAFEF9770
:100E3000C158DF4F8883CF57D040C058DF4F8883D9
:100E4000C058D040CF57DF4F8883C158D040CE57CD
:100E5000DF4F8883C258D04083E090E0CD57DF4F0A
:100E600099838883C358D04080E1FE01E75AFE4F42
:100E7000ADE6B0E0AC0FBD1F589601900D928A957B
:100E8000E1F76CE670E0CE0183599F4F0E94CB05DD
:100E900080E891E00E947506F8941092E6011092A5
:100EA000E7011092E8011092E9010E94EF047894A2
:100EB00084E8C82ED12CF601A080B18021E0AE01DB
:100EC0004F5F5F4F6CE6CE0183599F4F0E945B3CA2
:100ED000182FF894F601608171812091E60130911C
:100EE000E7014091E8015091E901789408E0C501DB
:100EF0000E9418066B017C0189E991E00E94750649
:100F0000C701B6010E94740580EB91E00E9475064E
:100F1000812F0E94F8056AE670E0CE0101960E94DA
:100F2000CB058FEB91E00E94750690E080E0C658FB
:100F3000DE4F0FB6F894DEBF0FBECDBFDF91CF916D
:100F40001F910F91FF90EF90DF90CF90BF90AF90E7
:100F50000C94B43DA1E21A2EAA1BBB1BFD010DC0CF
:100F6000AA1FBB1FEE1FFF1FA217B307E407F50759
:100F700020F0A21BB30BE40BF50B661F771F881F35
:100F8000991F1A9469F760957095809590959B01CB
:100F9000AC01BD01CF010895B7FF0C94F5070E9485
:100FA000F507821B930B08950024A7FD00942A0FD8
:100FB000301D401D501D601D701D801D901D089529
:100FC0002A153B054C055D056E057F0580079107D9
:100FD00008950024A7FD00942A1730054005500508
:100FE000600570058005900508950E940008A59F82
:100FF000900DB49F900DA49F800D911D1124089514
:10100000A29FB001B39FC001A39F700D811D112449
:10101000911DB29F700D811D1124911D08950E9494
:10102000830888F09F5798F0B92F9927B751B0F0EF
:10103000E1F0660F771F881F991F1AF0BA95C9F75C
:1010400014C0B13091F00E949D08B1E008950C9455
:101050009D08672F782F8827B85F39F0B93FCCF308
:10106000869577956795B395D9F73EF490958095D9
:10107000709561957F4F8F4F9F4F0895E89409C0F9
:1010800097FB3EF490958095709561957F4F8F4FBB
:101090009F4F9923A9F0F92F96E9BB279395F695D1
:1010A000879577956795B795F111F8CFFAF4BB0F4F
:1010B00011F460FF1BC06F5F7F4F8F4F9F4F16C0B3
:1010C000882311F096E911C0772321F09EE8872F3D
:1010D000762F05C0662371F096E8862F70E060E0F9
:1010E0002AF09A95660F771F881FDAF7880F969572
:1010F000879597F9089557FD9058440F551F59F05B
:101100005F3F71F04795880F97FB991F61F09F3FF4
:1011100079F087950895121613061406551FF2CF1D
:101120004695F1DF08C0161617061806991FF1CF6D
:1011300086957105610508940895E894BB27662794
:101140007727CB0197F908950E94B7080C942809D6
:101150000E941A0938F00E94210920F0952311F00D
:101160000C9411090C94170911240C949E080E94E8
:101170007B0870F3959FC1F3950F50E0551F629F58
:10118000F001729FBB27F00DB11D639FAA27F00DE0
:10119000B11DAA1F649F6627B00DA11D661F829F07
:1011A0002227B00DA11D621F739FB00DA11D621FEC
:1011B000839FA00D611D221F749F3327A00D611D09
:1011C000231F849F600D211D822F762F6A2F1124EB
:1011D0009F5750409AF0F1F088234AF0EE0FFF1F1E
:1011E000BB1F661F771F881F91505040A9F79E3F75
:1011F000510580F00C9411090C949E085F3FE4F3B4
:10120000983ED4F3869577956795B795F795E795CA
:101210009F5FC1F7FE2B880F911D9695879597F9D3
:10122000089597F99F6780E870E060E008959FEF68
:1012300080EC089500240A9416161706180609066D
:10124000089500240A94121613061406050608953C
:10125000092E0394000C11F4882352F0BB0F40F4C4
:10126000BF2B11F460FF04C06F5F7F4F8F4F9F4F04
:101270000895FB01DC0102C001900D9241505040E5
:10128000D8F70895BB274A3031F4992322F4BDE200
:10129000909581959F4F0C944E09BB27FB015527D4
:1012A000AA27880F991FAA1FA41710F0A41B8395C3
:1012B0005051B9F7A05DAA3308F0A95DA19300973A
:1012C00079F7B111B1931192CB010C946709DC014C
:1012D000FC01672F71917723E1F7329704C07C916D
:1012E0006D9370836291AE17BF07C8F30895F894A9
:0212F000FFCF2E
:1012F20002000099999902000099999902000099B7
:101302009999020000BBBBBBFFFFFFFFFFFFEFCDC0
:10131200AB89674523011032547698BADCFE30312E
:101322003233343536373839414243444546000D6D
:101332000A005374617274696E6720657870657211
:10134200696D656E747320666F722070726F766558
:101352007220636F756E743A2000496E6974696118
:101362006C697A65642068617368206D61700A0037
:101372005374617274696E67206174745F7265730D
:101382007020747269616C0A0046696E69736865DF
:101392006420747269616C2E2054696D653A200074
:1013A20072657475726E2076616C75653A20002DD7
:1013B2002D2D2D2D2D2D2D2D2D2D2D2D2D2D2D2D5B
:1013C2002D2D2D2D2D2D2D2D2D2D2D2D2D2D2D2D4B
:0613D2002D2D2D2D0A0057
:107000001F93CF93DF939A01A3E0FA01A093570057
:10701000E89507B600FCFDCFEC01D395DC0111E04B
:10702000281B390B9C91F901EA0FFB1F11968C91DB
:1070300011978927982789270C0110935700E89505
:1070400011241296CA17DB0769F785E0FA018093CD
:107050005700E89507B600FCFDCF81E1809357000B
:10706000E895DF91CF911F9108959C013395DC0144
:10707000481B590BFA01EA0FFB1FE491ED93A2178D
:10708000B307C1F70895CF93CFB7F894611528E3FC
:10709000720740F4AB0170E060E0585C6F4F7F4FC7
:1070A0000E940038CFBF7894CF910895E2E0FFE6C8
:1070B00025913491369527958217930770F02CE629
:1070C0003CE7F901459154918417950771F02E5FC3
:1070D0003F4F452BB1F780E00895E4E0FFE62591AE
:1070E000349146E05FE6211102C081E00895FA0183
:1070F000659174918617970771F34E5F5F4F21502A
:10710000F2CF2F923F924F925F926F927F928F9227
:107110009F92AF92BF92CF92DF92EF92FF920F9326
:107120001F93CF93DF9300D000D0CDB7DEB7FC0123
:10713000422E332E70E0CB0146979B838A8397FFC4
:1071400004C0DB011F97BB83AA838A819B8123E054
:10715000959587952A95E1F79B838A832A8042300B
:1071600009F0B7C099279B838A83712C612CEE2488
:10717000E394F12C55245394AA81BB816A167B06B3
:10718000B9F40F900F900F900F90DF91CF911F9156
:107190000F91FF90EF90DF90CF90BF90AF909F90B6
:1071A0008F907F906F905F904F903F902F900895B9
:1071B000042D132D912C812CA701082C02C0440F03
:1071C000551F0A94E2F7952F990F990B26892423CE
:1071D00037893523408D4923518D5923628D692389
:1071E000738D7923848DA58D89239A23A0E00E9435
:1071F000E90719F0D80111965C92BFEF8B1A9B0A30
:107200000F5F1F4F8FE188169104B1F69FEF691A47
:10721000790A3896B1CF042D132DF12CE12C41E0E1
:1072200050E00E2C02C0440F551F0A94E2F7952F30
:10723000990F990B2689242337893523408D4923BB
:10724000518D5923628D6923738D7923848DA58D8A
:1072500089239A23A0E00E94E907A9F181E0D801DF
:1072600011968C93BFEFEB1AFB0A0F5F1F4F8FE154
:10727000E816F104A1F6272D382D492D5C816A818D
:107280007981852D962DA1E00E94D407722E832E40
:10729000942E5C836A837983582E692E272D382D8E
:1072A000492D5C816A817981852D962DA22CB12C86
:1072B000C12CD12CE12CF12C00E010E00E94E00761
:1072C00008F4A9CF5ECFD80111968C9111978270E6
:1072D000C7CF712C812C912C1C821A821982512CBF
:1072E000612CDCCFECE4FCE79C01205E3F4F449135
:1072F000DC014D93CD013196A217B307C1F7089574
:107300008F929F92AF92BF92CF92DF92EF92FF92B5
:107310001F93CF93DF93CDB7DEB7C057D2400FB6E0
:10732000F894DEBF0FBECDBFE0E0FFE6E590F4903D
:10733000E4E0FFE66591749113E0160F110FCE01A2
:1073400001960E94723940E051E0BE016F5F7F4FAD
:10735000CE018F5F9D4F0E9472036701812C38E33D
:10736000932EA12CB12C8FEFC816D10411F008F088
:107370006AC04F2D552780E0849FB001859F700D16
:10738000741B1124E60EF71E70E060E0485C5F4F4E
:107390006F4F7F4F762F652F542F4427CE010196D4
:1073A0000E94353840E05FE660E070E081E090E008
:1073B0008C0F9D1F8E0D9F1D0E943538E10EF11C14
:1073C000A70123E0440F551F2A95E1F7BE016F5F27
:1073D0007F4FCE018F5F9D4F0E94E20361E070E01E
:1073E0006C0F7D1F6E0D7F1D40E250E0CE018F5A65
:1073F0009D4F0E94103EBE016F5F7D4FCE010196F2
:107400000E94E40340E250E0BE016F5A7D4FCE017E
:1074100001960E94193E21E0892B09F020E0822F7D
:10742000C059DD4F0FB6F894DEBF0FBECDBFDF9160
:10743000CF911F91FF90EF90DF90CF90BF90AF90D2
:107440009F908F900895B501A401CE0101960E94EE
:107450003538BE016F5F7F4FCE018F5F9D4F0E9419
:10746000E003BE016F5B7F4FCE018F5F9D4F0E9497
:10747000E003BE016F577F4FCE018F5F9D4F0E948B
:10748000E003BE016F537F4FCE018F5F9D4F0E947F
:10749000E003DA948FEF981AA80AB80A64CF4F92E3
:1074A0005F926F927F928F929F92AF92BF92CF9294
:1074B000DF92EF92FF920F931F93CF93DF93CDB79D
:1074C000DEB7DA950FB6F894DEBF0FBECDBF8FB62C
:1074D000F894E2E0FFE6C590D490D694C794912C3E
:1074E000F12CE12CA12C58E3B52E77247394CE1403
:1074F000DF0479F50E948039882309F435C0E0E083
:10750000FFE68591949101E010E0811102C010E046
:1075100000E0892F9927080F191FD12CC12CF12CBD
:10752000E12C0E151F0509F060C040E05FE660E049
:1075300070E0CE0101960E94353840E057E360E0EC
:1075400070E0CE0101960E9400388FBE78940C94B2
:107550000000F50105911491C801992009F46AC051
:107560000E945638811157C080E0D3950FB6F89429
:10757000DEBF0FBECDBFDF91CF911F910F91FF9066
:10758000EF90DF90CF90BF90AF909F908F907F90C3
:107590006F905F904F900895C8018827987F81155C
:1075A000904FA9F433E0169507953A95E1F70F77D8
:1075B00011270034110510F000681F6FC7010196F4
:1075C000800F911F0E945638811159C050C0C801C8
:1075D0008827907E8115904C09F051C01F700115CD
:1075E00088E0180758F3106FE9CF712C612CB301B4
:1075F000A601585C6F4F7F4FCE0101960E9435382F
:10760000B301A601CE0101960E9400388FEFE81A5F
:10761000F80AD39486CFC8018D7F8C30944971F4D9
:10762000C7010E94563881119FCF97242FEFE21A8D
:10763000F20A5DCF8D7F8C309449B9F3C801885030
:1076400095490297A0F0083125E9120781F0093029
:1076500084E9180761F0083C25E9120741F0C801E8
:107660008F709E7F84509049029708F095CF9920A3
:1076700009F47ACFC7010E945638811175CF912C39
:10768000D5CFCF92DF92EF92FF920F931F93CF93BC
:10769000DF93CDB7DEB7C055D1400FB6F894DEBF4B
:1076A0000FBECDBF8C01CE0101960E94723940E021
:1076B00051E0BE016F5F7F4FCE018F5F9E4F0E94F2
:1076C0007203C12CD12C7601B701A601CE0101961F
:1076D0000E943538BE016F5F7F4FCE018F5F9E4F96
:1076E0000E94E003BE016F5B7F4FCE018F5F9E4F14
:1076F0000E94E003BE016F577F4FCE018F5F9E4F08
:107700000E94E003BE016F537F4FCE018F5F9E4FFB
:107710000E94E0038FEFD81AE80AF80AC11480E843
:10772000D806E104F10481F640EA50E0B801CE0148
:107730008F5F9E4F0E94E203BE016F5F7E4FC801C4
:107740000E94E403C05BDE4F0FB6F894DEBF0FBEAD
:10775000CDBFDF91CF911F910F91FF90EF90DF9000
:10776000CF900895AF92BF92CF92DF92EF92FF92A7
:107770000F931F93CF93DF93CDB7DEB7C658D14099
:107780000FB6F894DEBF0FBECDBF6C017B0186E063
:10779000E0E0F1E0DE01AF57BE4F01900D928A9517
:1077A000E1F7F901C90180961192E817F907E1F7AD
:1077B000F601A688B78890E17896DE01AF58BE4FF3
:1077C00001900D929A95E1F741116FC080E2F801A6
:1077D000DE01AF5ABE4F01900D928A95E1F786E027
:1077E000FE01EF57FE4FD70101900D928A95E1F708
:1077F00088EE93E0F70197878687B18AA08A80E1B7
:10780000FE01EF58FE4FD701529601900D928A95D6
:10781000E1F786E6F70182A383A384A385A386A369
:1078200087A380A781A780E2FE01EF5AFE4FD70110
:107830009A9601900D928A95E1F7CE0101960E94E9
:10784000723940E051E0BE016F5F7F4FCE018F5F24
:107850009E4F0E947203B701CE018F5F9E4F0E9420
:10786000E003B701605C7F4F40E550E0CE018F5FE1
:107870009E4F0E94E203BE016F5F7E4FC701865B91
:107880009F4F0E94E403CA57DE4F0FB6F894DEBF45
:107890000FBECDBFDF91CF911F910F91FF90EF9061
:1078A000DF90CF90BF90AF900895CE018F5A9E4F3A
:1078B0000E94413B94CF2F923F924F925F926F92E2
:1078C0007F928F929F92AF92BF92CF92DF92EF9270
:1078D000FF920F931F93CF93DF93CDB7DEB7C456BC
:1078E000D1090FB6F894DEBF0FBECDBF762E4A0188
:1078F000622E580117019E012F5F3F4F690124E658
:10790000F60111922A95E9F7462F50E0BC01C60115
:107910000E943909DE011796E6E0F1E09D91819120
:1079200098137BC011E0EC30F107C1F74F84588801
:10793000E988FA88BB89AC89FD89EE899201A701A3
:107940006B2F7A2F8F2F9E2F213111E131074107A5
:107950005107610771078107910711F581019501B1
:10796000462DB401C6010E94B23B81E0CC59DF4FE5
:107970000FB6F894DEBF0FBECDBFDF91CF911F9140
:107980000F91FF90EF90DF90CF90BF90AF909F90BE
:107990008F907F906F905F904F903F902F900895C1
:1079A0009201A701223212E2310741075107610714
:1079B00071078107910741F4950142E0672DC601E7
:1079C0000E94813882E0D2CF9201A701233313E3D2
:1079D000310741075107610771078107910751F48A
:1079E000F501C501809621E02193E817F907E1F739
:1079F00083E0BCCF9201A70124343444444454446E
:107A0000644474448444944451F4950144E0672DE3
:107A1000C6010E94813884E0A9CF8FEFA7CF8EEFF7
:107A2000A5CF433049F4F901C901809621E02193A3
:107A3000E817F907E1F708950C948138AC014A5F23
:107A40005F4F30E020E0EFE1E29FB001E39F700D77
:107A50001124DC012D91CD01260F372F311D4A173E
:107A60005B0791F7C9018F7199270895EF92FF92F3
:107A70000F931F93CF93DF93EB018A0179010E944B
:107A80001E3D880F991FE80EF91EF7018081918134
:107A9000080F191FF801808180FD15C0867089F4D8
:107AA00086E0E6E0F1E0DE0101900D928A95E1F7D3
:107AB00085E58E878F87888B898B8A8B8B8B8C8BC8
:107AC0008D8B80E001C081E0DF91CF911F910F91FC
:107AD000FF90EF900895EF92FF920F931F93CF9333
:107AE000DF9300D000D000D0CDB7DEB77C0182E0BC
:107AF00089831A821B821C821D821E8200E210E092
:107B0000CE0101960E941E3DFC01EE0FFF1FEE0DFF
:107B1000FF1D918380830150110991F726960FB6BE
:107B2000F894DEBF0FBECDBFDF91CF911F910F91B3
:107B3000FF90EF9008952F932FB7F8942F933F93D2
:107B40004F938F939F93EF93FF93CF0145D088235B
:107B500051F0FF91EF919F918F914F913F912F9114
:107B60002FBF2F910994FFCF2F932FB7F8942F9306
:107B70003F934F938F939F93EF93FF93EDB7FEB790
:107B800039969191808128D0882369F3FF91EF91F4
:107B90009F918F914F913F912F912FBF2F910895DA
:107BA0002F932FB7F8942F933F934F938F939F93D7
:107BB000EF93FF93EDB7FEB73996919180810CD08A
:107BC000882389F2FF91EF919F918F914F913F917F
:107BD0002F912FBF2F911895E2E0F7E32591349173
:107BE000369527958217930768F0ECE6FCE7259118
:107BF00035918217930711F481E00895232BB9F78B
:107C000080E00895E4E0F7E34491E6E0F7E34423FD
:107C100099F3259135918217930791F34150F7CF4E
:107C2000FB01DC0102C001900D9241505040D8F799
:107C30000895FB01DC0104C08D910190801921F4AD
:107C400041505040C8F7881B990B08956E26886EE6
:107C50004E0707E1B30F24160E99B912E461C4244C
:107C60000101010101010101010101019B3DB43D3F
:0E7C7000D03D43384F3A5B3C363D6B3D000043
:00000001FF
