:100000000C9434000C9449000C9449000C94490061
:100010000C9449000C9449000C9449000C9449003C
:100020000C9449000C9449000C9449000C9449002C
:100030000C9449000C9449000C9449000C9449001C
:100040000C9449000C9449000C9449000C9449000C
:100050000C9449000C9449000C9449000C944900FC
:100060000C9449000C94490011241FBECFEFD8E036
:10007000DEBFCDBF11E0A0E0B1E0E2EDF5E002C0EF
:1000800005900D92A030B107D9F70E944C020C9454
:10009000E7020C940000DB01FC0155E0149744E0FA
:1000A00018960E9001924A95E1F75A95C1F7089576
:1000B000523090F09F938F937F936F935F934F9302
:1000C00077D04F915F916F917F918F919F91525017
:1000D00030E4630F711DECCFEDB7FEB70FB6E054FF
:1000E000F040F894EDBF0FBEFEBF3196242F269549
:1000F0002695269550FB25F9DB01222329F0122EA7
:100100000D9001921A94E1F730E8032E37E0342382
:1001100029F006943A95E9F73C91032A0192239538
:10012000293308F421C030E4321B19F011923A95BA
:10013000E9F7FF973197BF01FF93EF939F938F9359
:100140005F934F9335D04F915F918F919F91EF9136
:10015000FF91DC0155963C9132503D9326E03C9155
:1001600030403D932A95D9F738E3321B21F0112412
:1001700011923A95E9F7DC01549638960D90040EE9
:1001800002920D90051E029236E00D90011C029223
:100190003A95D9F7F897BF010BD0EDB7FEB70FB678
:1001A000FF963196F894EDBF0FBEFEBF112408955F
:1001B000AF92BF92CF92DF92EF92FF920F931F9375
:1001C000CF93DF934DB75EB79A01FB01485550407E
:1001D000DA010FB6F8944DBF0FBE5EBF2F933F9369
:1001E0008F939F93EC01119604E129912D930A9529
:1001F000E1F75D01FB0100E123812D9322812D9325
:1002000021812D9320812D9334960A95A9F70024FE
:10021000102F110F110F1C73D501A10FB11DCD901F
:10022000DD90ED90FD90003114F128E005D020E242
:1002300003D024E301D00EC0210F2F73D501A20FEC
:10024000B11D3D91C3263D91D3263D91E3263D91BD
:10025000F32608953F2D331FCC1CDD1CEE1CFF1C24
:10026000D501A10FB11DCD92DD92ED92FD92D50188
:1002700014972D91C20E2D91D21E2D91E21E2D911B
:10028000F21E54976D917D918D919D91292F35E0AE
:10029000221F661F771F881F991F3A95C9F7C60E40
:1002A000D71EE81EF91EE2E9F3E0E00DF11D2491EE
:1002B000201709F40394E6E9F3E0000C000CE00DCC
:1002C000F11D069406942591C20E2591D21E25910A
:1002D000E21E2591F21EED013C960894F795E795F4
:1002E0000995622F0995722F0995822F0995C60EDF
:1002F000D71EE81EF21EE501249730E12A912C83D7
:100300003A95E1F7E5016497C992D992E992F99299
:10031000CC80DD80EE80FF802C2D32E02795F79495
:10032000E794D794C7943A95C9F7CC82DD82EE82E0
:10033000FF82039500350CF46BCF2497BF91AF91EA
:1003400055E0889444E02C913991231F2D934A95D0
:10035000D1F75A95B1F711962C9132E0230F2D93D6
:1003600036E02C91211D2D933A95D9F75F914F914D
:100370000FB6F8944DBF0FBE5EBF1124DF91CF9131
:100380001F910F91FF90EF90DF90CF90BF90AF90B3
:10039000089514283C009979825AA1EBD96EDCBCEF
:1003A0001B8FD6C162CA06C0000017C000000BC078
:1003B000000013C02991322F30954B8124234F81A7
:1003C0003423232708952991322F4B8124235F81E1
:1003D0003523232745232427089529913B8123276B
:1003E0003F8123270895DC01E0E0F4E064E17591AA
:1003F0007D936A95E1F768E01D926A95E9F70895A3
:100400000123456789ABCDEFFEDCBA9876543210F4
:10041000F0E1D2C39C0133954FEFFC014193CF0132
:10042000E217F307D1F70C94D63A1092C50083E394
:100430008093C400E0ECF0E080818D7F808386E0D3
:100440008093C20088E18093C1000C94D63A8091D9
:10045000C00087FFFCCF8091C6000C94D63ACF93A2
:10046000C82F8A3019F48DE00E942F028091C000BD
:1004700085FFFCCFC093C600CF910C94D63ACF93A2
:10048000DF93EC018991811104C0DF91CF910C942D
:10049000D63A0E942F02F6CFCF93DF93CDB7DEB7C7
:1004A000DA950FB6F894DEBF0FBECDBF0E941502DD
:1004B0008E010F5F1F4F2E0181E0480E581EC801AC
:1004C0000E940A020E94270289830E9427028A83CF
:1004D0006980782E0E9427028B830E9427028C83DA
:1004E0000E9427028D830E9427028E83CD80D82E02
:1004F0005801F12CE12C82E0A80EB11CEC14FD0493
:1005000009F044C06701E3E0CE0ED11CCC0CDD1C29
:10051000C00ED11E24E1E22EF12C0E942702F6012A
:1005200081936F01F1E0EF1AF108B9F760E077E32A
:10053000C8010E9443388FE60E942F02872C99241D
:10054000D12CC12C8C149D0469F57724611471049D
:10055000B9F0C8010E940A0278010E942702F7013F
:1005600081937F01CF01801B910B86159705A8F31E
:1005700060E07C2DC8010E9443388FE60E942F0264
:1005800084E60E942F020E944D3999CF0E942702D3
:10059000F50184830E942702F5018583FFEFEF1A9E
:1005A000FF0AA9CF58010E942702F50181935F013C
:1005B000E415F505C1F7B701C8010E9443388FE67D
:1005C0000E942F02FFEFCF1ADF0AF394BBCFF894FB
:0205D000FFCF5B
:107000001F93CF93DF939A01A3E0FA01A093570057
:10701000E89507B600FCFDCFEC01D395DC0111E04B
:10702000281B390B9C91F901EA0FFB1F11968C91DB
:1070300011978927982789270C0110935700E89505
:1070400011241296CA17DB0769F785E0FA018093CD
:107050005700E89507B600FCFDCF81E1809357000B
:10706000E895DF91CF911F9108959C013395DC0144
:10707000481B590BFA01EA0FFB1FE491ED93A2178D
:10708000B307C1F70895CF93CFB7F894611528E3FC
:10709000720740F4AB0170E060E0585C6F4F7F4FC7
:1070A0000E940038CFBF7894CF910895E2E0FFE6C8
:1070B00025913491369527958217930770F028E132
:1070C00038E7F901459154918417950771F02E5FC7
:1070D0003F4F452BB1F780E00895E4E0FFE62591AE
:1070E000349146E05FE6211102C081E00895FA0183
:1070F000659174918617970771F34E5F5F4F21502A
:10710000F2CF4F925F926F927F92AF92BF92CF92E7
:10711000DF92EF92FF921F93CF93DF93CDB7DEB74D
:10712000CC54D2400FB6F894DEBF0FBECDBFE0E026
:10713000FFE6C590D490E4E0FFE66591749113E01A
:10714000160F110FE4E0F8E7DE011196CE01459627
:107150007D0124912D933196A817B907D1F740EA04
:1071600050E0B701CE018F5F9D4F0E94323B560128
:10717000412C38E3532E612C712C8FEFA816B104EB
:1071800011F008F061C04D2D552780E0849FB001BB
:10719000859F700D741B1124C60ED71E70E060E031
:1071A000485C5F4F6F4F7F4F762F652F542F4427DA
:1071B000C7010E94353840E05FE660E070E0C7013B
:1071C0008C0D9D1D0E943538C10ED11CA60123E0F7
:1071D000440F551F2A95E1F7B701CE018F5F9D4FF0
:1071E0000E94953BB7016C0D7D1D44E150E0CE013E
:1071F000875C9D4F0E94EC3BBE016F5F7D4FC701D6
:107200000E94D53B44E150E0BE01675C7D4FC70161
:107210000E94F53B21E0892B09F020E0822FC45B1E
:10722000DD4F0FB6F894DEBF0FBECDBFDF91CF911B
:107230001F91FF90EF90DF90CF90BF90AF907F9025
:107240006F905F904F900895B301A201C7010E9413
:107250003538B701CE018F5F9D4F0E94933BBE0131
:107260006F5B7F4FCE018F5F9D4F0E94933BBE01AE
:107270006F577F4FCE018F5F9D4F0E94933BBE01A2
:107280006F537F4FCE018F5F9D4F0E94933BBA9407
:107290008FEF581A680A780A70CF4F925F926F92F8
:1072A0007F928F929F92AF92BF92CF92DF92EF9296
:1072B000FF920F931F93CF93DF93CDB7DEB7DA958D
:1072C0000FB6F894DEBF0FBECDBF8FB6F894E2E0E4
:1072D000FFE6C590D490D694C794912CF12CE12C64
:1072E000A12C58E3B52E77247394CE14DF0479F5DE
:1072F0000E948138882309F435C0E0E0FFE68591DB
:10730000949101E010E0811102C010E000E0892FAB
:107310009927080F191FD12CC12CF12CE12C0E1527
:107320001F0509F060C040E05FE660E070E0CE015C
:1073300001960E94353840E057E360E070E0CE01EE
:1073400001960E9400388FBE78940C940000F501DD
:1073500005911491C801992009F46AC00E94563819
:10736000811157C080E0D3950FB6F894DEBF0FBEF1
:10737000CDBFDF91CF911F910F91FF90EF90DF90E4
:10738000CF90BF90AF909F908F907F906F905F90C5
:107390004F900895C8018827987F8115904FA9F4D0
:1073A00033E0169507953A95E1F70F7711270034EA
:1073B000110510F000681F6FC7010196800F911F23
:1073C0000E945638811159C050C0C8018827907E4C
:1073D0008115904C09F051C01F70011588E0180705
:1073E00058F3106FE9CF712C612CB301A601585CE2
:1073F0006F4F7F4FCE0101960E943538B301A60131
:10740000CE0101960E9400388FEFE81AF80AD39453
:1074100086CFC8018D7F8C30944971F4C7010E94DA
:10742000563881119FCF97242FEFE21AF20A5DCFD1
:107430008D7F8C309449B9F3C801885095490297E3
:10744000A0F0083125E9120781F0093084E9180716
:1074500061F0083C25E9120741F0C8018F709E7F5A
:1074600084509049029708F095CF992009F47ACF7B
:10747000C7010E945638811175CF912CD5CF9F92AC
:10748000AF92BF92CF92DF92EF92FF920F931F9332
:10749000CF93DF93CDB7DEB7C853D1400FB6F89482
:1074A000DEBF0FBECDBF5C019FB6F894E4E0F8E705
:1074B000DE011196CE0145968D0124912D933196D2
:1074C000A817B907D1F740EA50E0B801CE018F5FA5
:1074D0009E4F0E94323BC12CD12C7601B701A601F0
:1074E000C8010E943538B801CE018F5F9E4F0E94BF
:1074F000933BBE016F5B7F4FCE018F5F9E4F0E941B
:10750000933BBE016F577F4FCE018F5F9E4F0E940E
:10751000933BBE016F537F4FCE018F5F9E4F0E9402
:10752000933B8FEFD81AE80AF80AC11480E8D8060E
:10753000E104F10499F640EA50E0B501CE018F5F15
:107540009E4F0E94953BBE016F5F7E4FC5010E941A
:10755000D53B9FBEC85CDE4F0FB6F894DEBF0FBEB2
:10756000CDBFDF91CF911F910F91FF90EF90DF90F2
:10757000CF90BF90AF909F9008952F932FB7F8941E
:107580002F933F934F938F939F93EF93FF93CF014D
:1075900045D0882351F0FF91EF919F918F914F91AA
:1075A0003F912F912FBF2F910994FFCF2F932FB78A
:1075B000F8942F933F934F938F939F93EF93FF9361
:1075C000EDB7FEB739969191808128D0882369F371
:1075D000FF91EF919F918F914F913F912F912FBFED
:1075E0002F9108952F932FB7F8942F933F934F9394
:1075F0008F939F93EF93FF93EDB7FEB739969191D9
:1076000080810CD0882389F2FF91EF919F918F9117
:107610004F913F912F912FBF2F911895E2E0F7E303
:1076200025913491369527958217930768F0E8E104
:10763000F8E7259135918217930711F481E00895B9
:10764000232BB9F780E00895E4E0F7E34491E6E006
:10765000F7E3442399F3259135918217930791F32A
:107660004150F7CFAF92BF92CF92DF92EF92FF924D
:107670000F931F93CF93DF93CDB7DEB7C054D109DB
:107680000FB6F894DEBF0FBECDBF8C01CE010196C0
:107690007C0180E4F70111928A95E9F7495F5F4F19
:1076A00083E0569547958A95E1F7C7010E94EC3B28
:1076B00057019E012F5B3F4F670196E3F6018191D1
:1076C0006F01319789278083C216D306B9F7C801A5
:1076D0000E94F301B701C8010E94D8009AE6F501A3
:1076E00081915F01319789278083AC14BD04B9F77C
:1076F000045E1F4FC8010E94F301B701C8010E9438
:10770000D800C05CDF4F0FB6F894DEBF0FBECDBF10
:10771000DF91CF911F910F91FF90EF90DF90CF906D
:10772000BF90AF9008950C94D800AF92BF92CF92C3
:10773000DF92EF92FF920F931F93CF93DF938C0111
:10774000EB017A016A015B01C11482E0D80618F5E9
:10775000B701672F7727669580E09EEF689FA001AD
:10776000699F500D789F500D11244E0D5F1D96E0BE
:10777000660F771F9A95E1F76C0F7D1FC801DF91A7
:10778000CF911F910F91FF90EF90DF90CF90BF901E
:10779000AF900C945800B501C8010E94D80080E455
:1077A000A80EB11C82E0D81ACFCF0F931F93CF93AE
:1077B000DF938C01EB010E944B006C9640EA50E095
:1077C000B801CE010E945800BE01C801DF91CF91DF
:1077D0001F910F910C944B00FB01DC0102C0019042
:1077E0000D9241505040D8F70895FB01DC0104C0D0
:1077F0008D910190801921F441505040C8F7881BA9
:10780000990B08956E26886E4E0707E1B30F241674
:107810000E99B912E461C424BD3AD63AF23A43381B
:067820004D393F3A000063
:00000001FF
